{
  "contractName": "LandRegistry",
  "abi": [
    {
      "inputs": [],
      "payable": false,
      "stateMutability": "nonpayable",
      "type": "constructor"
    },
    {
      "constant": true,
      "inputs": [
        {
          "internalType": "uint256",
          "name": "",
          "type": "uint256"
        }
      ],
      "name": "land",
      "outputs": [
        {
          "internalType": "address payable",
          "name": "id",
          "type": "address"
        },
        {
          "internalType": "string",
          "name": "ipfsHash",
          "type": "string"
        },
        {
          "internalType": "string",
          "name": "laddress",
          "type": "string"
        },
        {
          "internalType": "uint256",
          "name": "lamount",
          "type": "uint256"
        },
        {
          "internalType": "uint256",
          "name": "key",
          "type": "uint256"
        },
        {
          "internalType": "string",
          "name": "isGovtApproved",
          "type": "string"
        },
        {
          "internalType": "string",
          "name": "isAvailable",
          "type": "string"
        },
        {
          "internalType": "address",
          "name": "requester",
          "type": "address"
        },
        {
          "internalType": "enum LandRegistry.reqStatus",
          "name": "requestStatus",
          "type": "uint8"
        }
      ],
      "payable": false,
      "stateMutability": "view",
      "type": "function"
    },
    {
      "constant": true,
      "inputs": [
        {
          "internalType": "address",
          "name": "",
          "type": "address"
        }
      ],
      "name": "users",
      "outputs": [
        {
          "internalType": "address",
          "name": "userid",
          "type": "address"
        },
        {
          "internalType": "string",
          "name": "uname",
          "type": "string"
        },
        {
          "internalType": "uint256",
          "name": "ucontact",
          "type": "uint256"
        },
        {
          "internalType": "string",
          "name": "uemail",
          "type": "string"
        },
        {
          "internalType": "uint256",
          "name": "upostalCode",
          "type": "uint256"
        },
        {
          "internalType": "string",
          "name": "city",
          "type": "string"
        },
        {
          "internalType": "bool",
          "name": "exist",
          "type": "bool"
        }
      ],
      "payable": false,
      "stateMutability": "view",
      "type": "function"
    },
    {
      "constant": false,
      "inputs": [
        {
          "internalType": "address",
          "name": "uid",
          "type": "address"
        },
        {
          "internalType": "string",
          "name": "_uname",
          "type": "string"
        },
        {
          "internalType": "uint256",
          "name": "_ucontact",
          "type": "uint256"
        },
        {
          "internalType": "string",
          "name": "_uemail",
          "type": "string"
        },
        {
          "internalType": "uint256",
          "name": "_ucode",
          "type": "uint256"
        },
        {
          "internalType": "string",
          "name": "_ucity",
          "type": "string"
        }
      ],
      "name": "addUser",
      "outputs": [
        {
          "internalType": "bool",
          "name": "",
          "type": "bool"
        }
      ],
      "payable": false,
      "stateMutability": "nonpayable",
      "type": "function"
    },
    {
      "constant": true,
      "inputs": [
        {
          "internalType": "address",
          "name": "uid",
          "type": "address"
        }
      ],
      "name": "getUser",
      "outputs": [
        {
          "internalType": "address",
          "name": "",
          "type": "address"
        },
        {
          "internalType": "string",
          "name": "",
          "type": "string"
        },
        {
          "internalType": "uint256",
          "name": "",
          "type": "uint256"
        },
        {
          "internalType": "string",
          "name": "",
          "type": "string"
        },
        {
          "internalType": "uint256",
          "name": "",
          "type": "uint256"
        },
        {
          "internalType": "string",
          "name": "",
          "type": "string"
        },
        {
          "internalType": "bool",
          "name": "",
          "type": "bool"
        }
      ],
      "payable": false,
      "stateMutability": "view",
      "type": "function"
    },
    {
      "constant": false,
      "inputs": [
        {
          "internalType": "address payable",
          "name": "_id",
          "type": "address"
        },
        {
          "internalType": "string",
          "name": "_ipfsHash",
          "type": "string"
        },
        {
          "internalType": "string",
          "name": "_laddress",
          "type": "string"
        },
        {
          "internalType": "uint256",
          "name": "_lamount",
          "type": "uint256"
        },
        {
          "internalType": "uint256",
          "name": "_key",
          "type": "uint256"
        },
        {
          "internalType": "string",
          "name": "status",
          "type": "string"
        },
        {
          "internalType": "string",
          "name": "_isAvailable",
          "type": "string"
        }
      ],
      "name": "Registration",
      "outputs": [
        {
          "internalType": "bool",
          "name": "",
          "type": "bool"
        }
      ],
      "payable": false,
      "stateMutability": "nonpayable",
      "type": "function"
    },
    {
      "constant": true,
      "inputs": [
        {
          "internalType": "string",
          "name": "_laddress",
          "type": "string"
        },
        {
          "internalType": "string",
          "name": "_lamount",
          "type": "string"
        }
      ],
      "name": "computeId",
      "outputs": [
        {
          "internalType": "uint256",
          "name": "",
          "type": "uint256"
        }
      ],
      "payable": false,
      "stateMutability": "view",
      "type": "function"
    },
    {
      "constant": true,
      "inputs": [],
      "name": "viewAssets",
      "outputs": [
        {
          "internalType": "uint256[]",
          "name": "",
          "type": "uint256[]"
        }
      ],
      "payable": false,
      "stateMutability": "view",
      "type": "function"
    },
    {
      "constant": true,
      "inputs": [],
      "name": "Assets",
      "outputs": [
        {
          "internalType": "uint256[]",
          "name": "",
          "type": "uint256[]"
        }
      ],
      "payable": false,
      "stateMutability": "view",
      "type": "function"
    },
    {
      "constant": true,
      "inputs": [
        {
          "internalType": "uint256",
          "name": "id",
          "type": "uint256"
        }
      ],
      "name": "landInfoOwner",
      "outputs": [
        {
          "internalType": "address payable",
          "name": "",
          "type": "address"
        },
        {
          "internalType": "string",
          "name": "",
          "type": "string"
        },
        {
          "internalType": "uint256",
          "name": "",
          "type": "uint256"
        },
        {
          "internalType": "string",
          "name": "",
          "type": "string"
        },
        {
          "internalType": "string",
          "name": "",
          "type": "string"
        },
        {
          "internalType": "address",
          "name": "",
          "type": "address"
        },
        {
          "internalType": "enum LandRegistry.reqStatus",
          "name": "",
          "type": "uint8"
        }
      ],
      "payable": false,
      "stateMutability": "view",
      "type": "function"
    },
    {
      "constant": false,
      "inputs": [
        {
          "internalType": "uint256",
          "name": "_id",
          "type": "uint256"
        },
        {
          "internalType": "string",
          "name": "status",
          "type": "string"
        },
        {
          "internalType": "string",
          "name": "_isAvailable",
          "type": "string"
        }
      ],
      "name": "govtStatus",
      "outputs": [
        {
          "internalType": "bool",
          "name": "",
          "type": "bool"
        }
      ],
      "payable": false,
      "stateMutability": "nonpayable",
      "type": "function"
    },
    {
      "constant": false,
      "inputs": [
        {
          "internalType": "uint256",
          "name": "property",
          "type": "uint256"
        }
      ],
      "name": "makeAvailable",
      "outputs": [],
      "payable": false,
      "stateMutability": "nonpayable",
      "type": "function"
    },
    {
      "constant": false,
      "inputs": [
        {
          "internalType": "uint256",
          "name": "id",
          "type": "uint256"
        }
      ],
      "name": "requstToLandOwner",
      "outputs": [],
      "payable": false,
      "stateMutability": "nonpayable",
      "type": "function"
    },
    {
      "constant": false,
      "inputs": [
        {
          "internalType": "uint256",
          "name": "property",
          "type": "uint256"
        },
        {
          "internalType": "enum LandRegistry.reqStatus",
          "name": "status",
          "type": "uint8"
        }
      ],
      "name": "processRequest",
      "outputs": [],
      "payable": false,
      "stateMutability": "nonpayable",
      "type": "function"
    },
    {
      "constant": false,
      "inputs": [
        {
          "internalType": "uint256",
          "name": "property",
          "type": "uint256"
        }
      ],
      "name": "buyProperty",
      "outputs": [],
      "payable": true,
      "stateMutability": "payable",
      "type": "function"
    },
    {
      "constant": true,
      "inputs": [
        {
          "internalType": "uint256",
          "name": "id",
          "type": "uint256"
        },
        {
          "internalType": "address",
          "name": "user",
          "type": "address"
        }
      ],
      "name": "findId",
      "outputs": [
        {
          "internalType": "uint256",
          "name": "",
          "type": "uint256"
        }
      ],
      "payable": false,
      "stateMutability": "view",
      "type": "function"
    }
  ],
  "bytecode": "0x608060405234801561001057600080fd5b5033600260006101000a81548173ffffffffffffffffffffffffffffffffffffffff021916908373ffffffffffffffffffffffffffffffffffffffff160217905550613221806100616000396000f3fe6080604052600436106100e85760003560e01c80636fa830a61161008a578063ae32a32511610059578063ae32a3251461112a578063baa39e0514611196578063f2c7027f146111d1578063fdb10f5014611352576100e8565b80636fa830a614610c1e578063861e465614610c4c578063a27664ee14610ecd578063a87430ba14610f3c576100e8565b806355d61952116100c657806355d61952146105a5578063621fdbb7146107b35780636c5ed939146109f55780636f77926b14610a30576100e8565b80630d2d5dca146100ed5780630e435f08146101595780633e40e29614610432575b600080fd5b3480156100f957600080fd5b5061010261139a565b6040518080602001828103825283818151815260200191508051906020019060200280838360005b8381101561014557808201518184015260208101905061012a565b505050509050019250505060405180910390f35b34801561016557600080fd5b50610418600480360360e081101561017c57600080fd5b81019080803573ffffffffffffffffffffffffffffffffffffffff169060200190929190803590602001906401000000008111156101b957600080fd5b8201836020820111156101cb57600080fd5b803590602001918460018302840111640100000000831117156101ed57600080fd5b91908080601f016020809104026020016040519081016040528093929190818152602001838380828437600081840152601f19601f8201169050808301925050505050505091929192908035906020019064010000000081111561025057600080fd5b82018360208201111561026257600080fd5b8035906020019184600183028401116401000000008311171561028457600080fd5b91908080601f016020809104026020016040519081016040528093929190818152602001838380828437600081840152601f19601f8201169050808301925050505050505091929192908035906020019092919080359060200190929190803590602001906401000000008111156102fb57600080fd5b82018360208201111561030d57600080fd5b8035906020019184600183028401116401000000008311171561032f57600080fd5b91908080601f016020809104026020016040519081016040528093929190818152602001838380828437600081840152601f19601f8201169050808301925050505050505091929192908035906020019064010000000081111561039257600080fd5b8201836020820111156103a457600080fd5b803590602001918460018302840111640100000000831117156103c657600080fd5b91908080601f016020809104026020016040519081016040528093929190818152602001838380828437600081840152601f19601f820116905080830192505050505050509192919290505050611432565b604051808215151515815260200191505060405180910390f35b34801561043e57600080fd5b5061058f6004803603604081101561045557600080fd5b810190808035906020019064010000000081111561047257600080fd5b82018360208201111561048457600080fd5b803590602001918460018302840111640100000000831117156104a657600080fd5b91908080601f016020809104026020016040519081016040528093929190818152602001838380828437600081840152601f19601f8201169050808301925050505050505091929192908035906020019064010000000081111561050957600080fd5b82018360208201111561051b57600080fd5b8035906020019184600183028401116401000000008311171561053d57600080fd5b91908080601f016020809104026020016040519081016040528093929190818152602001838380828437600081840152601f19601f8201169050808301925050505050505091929192905050506116aa565b6040518082815260200191505060405180910390f35b3480156105b157600080fd5b506105de600480360360208110156105c857600080fd5b810190808035906020019092919050505061178b565b604051808873ffffffffffffffffffffffffffffffffffffffff1673ffffffffffffffffffffffffffffffffffffffff1681526020018060200187815260200180602001806020018673ffffffffffffffffffffffffffffffffffffffff1673ffffffffffffffffffffffffffffffffffffffff16815260200185600381111561066457fe5b60ff16815260200184810384528a818151815260200191508051906020019080838360005b838110156106a4578082015181840152602081019050610689565b50505050905090810190601f1680156106d15780820380516001836020036101000a031916815260200191505b50848103835288818151815260200191508051906020019080838360005b8381101561070a5780820151818401526020810190506106ef565b50505050905090810190601f1680156107375780820380516001836020036101000a031916815260200191505b50848103825287818151815260200191508051906020019080838360005b83811015610770578082015181840152602081019050610755565b50505050905090810190601f16801561079d5780820380516001836020036101000a031916815260200191505b509a505050505050505050505060405180910390f35b3480156107bf57600080fd5b506109db600480360360c08110156107d657600080fd5b81019080803573ffffffffffffffffffffffffffffffffffffffff1690602001909291908035906020019064010000000081111561081357600080fd5b82018360208201111561082557600080fd5b8035906020019184600183028401116401000000008311171561084757600080fd5b91908080601f016020809104026020016040519081016040528093929190818152602001838380828437600081840152601f19601f82011690508083019250505050505050919291929080359060200190929190803590602001906401000000008111156108b457600080fd5b8201836020820111156108c657600080fd5b803590602001918460018302840111640100000000831117156108e857600080fd5b91908080601f016020809104026020016040519081016040528093929190818152602001838380828437600081840152601f19601f820116905080830192505050505050509192919290803590602001909291908035906020019064010000000081111561095557600080fd5b82018360208201111561096757600080fd5b8035906020019184600183028401116401000000008311171561098957600080fd5b91908080601f016020809104026020016040519081016040528093929190818152602001838380828437600081840152601f19601f820116905080830192505050505050509192919290505050611a6f565b604051808215151515815260200191505060405180910390f35b348015610a0157600080fd5b50610a2e60048036036020811015610a1857600080fd5b8101908080359060200190929190505050611c45565b005b348015610a3c57600080fd5b50610a7f60048036036020811015610a5357600080fd5b81019080803573ffffffffffffffffffffffffffffffffffffffff169060200190929190505050611d35565b604051808873ffffffffffffffffffffffffffffffffffffffff1673ffffffffffffffffffffffffffffffffffffffff1681526020018060200187815260200180602001868152602001806020018515151515815260200184810384528a818151815260200191508051906020019080838360005b83811015610b0f578082015181840152602081019050610af4565b50505050905090810190601f168015610b3c5780820380516001836020036101000a031916815260200191505b50848103835288818151815260200191508051906020019080838360005b83811015610b75578082015181840152602081019050610b5a565b50505050905090810190601f168015610ba25780820380516001836020036101000a031916815260200191505b50848103825286818151815260200191508051906020019080838360005b83811015610bdb578082015181840152602081019050610bc0565b50505050905090810190601f168015610c085780820380516001836020036101000a031916815260200191505b509a505050505050505050505060405180910390f35b610c4a60048036036020811015610c3457600080fd5b810190808035906020019092919050505061218a565b005b348015610c5857600080fd5b50610c8560048036036020811015610c6f57600080fd5b81019080803590602001909291905050506124ea565b604051808a73ffffffffffffffffffffffffffffffffffffffff1673ffffffffffffffffffffffffffffffffffffffff168152602001806020018060200189815260200188815260200180602001806020018773ffffffffffffffffffffffffffffffffffffffff1673ffffffffffffffffffffffffffffffffffffffff168152602001866003811115610d1557fe5b60ff16815260200185810385528d818151815260200191508051906020019080838360005b83811015610d55578082015181840152602081019050610d3a565b50505050905090810190601f168015610d825780820380516001836020036101000a031916815260200191505b5085810384528c818151815260200191508051906020019080838360005b83811015610dbb578082015181840152602081019050610da0565b50505050905090810190601f168015610de85780820380516001836020036101000a031916815260200191505b50858103835289818151815260200191508051906020019080838360005b83811015610e21578082015181840152602081019050610e06565b50505050905090810190601f168015610e4e5780820380516001836020036101000a031916815260200191505b50858103825288818151815260200191508051906020019080838360005b83811015610e87578082015181840152602081019050610e6c565b50505050905090810190601f168015610eb45780820380516001836020036101000a031916815260200191505b509d505050505050505050505050505060405180910390f35b348015610ed957600080fd5b50610f2660048036036040811015610ef057600080fd5b8101908080359060200190929190803573ffffffffffffffffffffffffffffffffffffffff1690602001909291905050506127e5565b6040518082815260200191505060405180910390f35b348015610f4857600080fd5b50610f8b60048036036020811015610f5f57600080fd5b81019080803573ffffffffffffffffffffffffffffffffffffffff1690602001909291905050506128ba565b604051808873ffffffffffffffffffffffffffffffffffffffff1673ffffffffffffffffffffffffffffffffffffffff1681526020018060200187815260200180602001868152602001806020018515151515815260200184810384528a818151815260200191508051906020019080838360005b8381101561101b578082015181840152602081019050611000565b50505050905090810190601f1680156110485780820380516001836020036101000a031916815260200191505b50848103835288818151815260200191508051906020019080838360005b83811015611081578082015181840152602081019050611066565b50505050905090810190601f1680156110ae5780820380516001836020036101000a031916815260200191505b50848103825286818151815260200191508051906020019080838360005b838110156110e75780820151818401526020810190506110cc565b50505050905090810190601f1680156111145780820380516001836020036101000a031916815260200191505b509a505050505050505050505060405180910390f35b34801561113657600080fd5b5061113f612af1565b6040518080602001828103825283818151815260200191508051906020019060200280838360005b83811015611182578082015181840152602081019050611167565b505050509050019250505060405180910390f35b3480156111a257600080fd5b506111cf600480360360208110156111b957600080fd5b8101908080359060200190929190505050612b49565b005b3480156111dd57600080fd5b50611338600480360360608110156111f457600080fd5b81019080803590602001909291908035906020019064010000000081111561121b57600080fd5b82018360208201111561122d57600080fd5b8035906020019184600183028401116401000000008311171561124f57600080fd5b91908080601f016020809104026020016040519081016040528093929190818152602001838380828437600081840152601f19601f820116905080830192505050505050509192919290803590602001906401000000008111156112b257600080fd5b8201836020820111156112c457600080fd5b803590602001918460018302840111640100000000831117156112e657600080fd5b91908080601f016020809104026020016040519081016040528093929190818152602001838380828437600081840152601f19601f820116905080830192505050505050509192919290505050612c1a565b604051808215151515815260200191505060405180910390f35b34801561135e57600080fd5b506113986004803603604081101561137557600080fd5b8101908080359060200190929190803560ff169060200190929190505050612c7d565b005b6060600360003373ffffffffffffffffffffffffffffffffffffffff1673ffffffffffffffffffffffffffffffffffffffff16815260200190815260200160002060000180548060200260200160405190810160405280929190818152602001828054801561142857602002820191906000526020600020905b815481526020019060010190808311611414575b5050505050905090565b60006040518061012001604052808973ffffffffffffffffffffffffffffffffffffffff168152602001888152602001878152602001868152602001858152602001848152602001838152602001600073ffffffffffffffffffffffffffffffffffffffff168152602001600060038111156114aa57fe5b8152506005600086815260200190815260200160002060008201518160000160006101000a81548173ffffffffffffffffffffffffffffffffffffffff021916908373ffffffffffffffffffffffffffffffffffffffff160217905550602082015181600101908051906020019061152392919061309b565b50604082015181600201908051906020019061154092919061309b565b50606082015181600301556080820151816004015560a082015181600501908051906020019061157192919061309b565b5060c082015181600601908051906020019061158e92919061309b565b5060e08201518160070160006101000a81548173ffffffffffffffffffffffffffffffffffffffff021916908373ffffffffffffffffffffffffffffffffffffffff1602179055506101008201518160070160146101000a81548160ff021916908360038111156115fb57fe5b0217905550905050600360008973ffffffffffffffffffffffffffffffffffffffff1673ffffffffffffffffffffffffffffffffffffffff168152602001908152602001600020600001849080600181540180825580915050906001820390600052602060002001600090919290919091505550600184908060018154018082558091505090600182039060005260206000200160009091929091909150555060019050979650505050505050565b60006509184e72a00083836040516020018083805190602001908083835b602083106116eb57805182526020820191506020810190506020830392506116c8565b6001836020036101000a03801982511681845116808217855250505050505090500182805190602001908083835b6020831061173c5780518252602082019150602081019050602083039250611719565b6001836020036101000a038019825116818451168082178552505050505050905001925050506040516020818303038152906040528051906020012060001c8161178257fe5b06905092915050565b6000606060006060806000806005600089815260200190815260200160002060000160009054906101000a900473ffffffffffffffffffffffffffffffffffffffff16600560008a8152602001908152602001600020600101600560008b815260200190815260200160002060030154600560008c8152602001908152602001600020600501600560008d8152602001908152602001600020600601600560008e815260200190815260200160002060070160009054906101000a900473ffffffffffffffffffffffffffffffffffffffff16600560008f815260200190815260200160002060070160149054906101000a900460ff16858054600181600116156101000203166002900480601f0160208091040260200160405190810160405280929190818152602001828054600181600116156101000203166002900480156119175780601f106118ec57610100808354040283529160200191611917565b820191906000526020600020905b8154815290600101906020018083116118fa57829003601f168201915b50505050509550838054600181600116156101000203166002900480601f0160208091040260200160405190810160405280929190818152602001828054600181600116156101000203166002900480156119b35780601f10611988576101008083540402835291602001916119b3565b820191906000526020600020905b81548152906001019060200180831161199657829003601f168201915b50505050509350828054600181600116156101000203166002900480601f016020809104026020016040519081016040528092919081815260200182805460018160011615610100020316600290048015611a4f5780601f10611a2457610100808354040283529160200191611a4f565b820191906000526020600020905b815481529060010190602001808311611a3257829003601f168201915b505050505092509650965096509650965096509650919395979092949650565b60006040518060e001604052808873ffffffffffffffffffffffffffffffffffffffff16815260200187815260200186815260200185815260200184815260200183815260200160011515815250600460008973ffffffffffffffffffffffffffffffffffffffff1673ffffffffffffffffffffffffffffffffffffffff16815260200190815260200160002060008201518160000160006101000a81548173ffffffffffffffffffffffffffffffffffffffff021916908373ffffffffffffffffffffffffffffffffffffffff1602179055506020820151816001019080519060200190611b5f92919061309b565b50604082015181600201556060820151816003019080519060200190611b8692919061309b565b506080820151816004015560a0820151816005019080519060200190611bad92919061309b565b5060c08201518160060160006101000a81548160ff02191690831515021790555090505060008790806001815401808255809150509060018203906000526020600020016000909192909190916101000a81548173ffffffffffffffffffffffffffffffffffffffff021916908373ffffffffffffffffffffffffffffffffffffffff16021790555050600190509695505050505050565b336005600083815260200190815260200160002060070160006101000a81548173ffffffffffffffffffffffffffffffffffffffff021916908373ffffffffffffffffffffffffffffffffffffffff1602179055506040518060400160405280600781526020017f50656e64696e6700000000000000000000000000000000000000000000000000815250600560008381526020019081526020016000206006019080519060200190611cf992919061311b565b5060016005600083815260200190815260200160002060070160146101000a81548160ff02191690836003811115611d2d57fe5b021790555050565b6000606060006060600060606000600460008973ffffffffffffffffffffffffffffffffffffffff1673ffffffffffffffffffffffffffffffffffffffff16815260200190815260200160002060060160009054906101000a900460ff161561217e57600460008973ffffffffffffffffffffffffffffffffffffffff1673ffffffffffffffffffffffffffffffffffffffff16815260200190815260200160002060000160009054906101000a900473ffffffffffffffffffffffffffffffffffffffff16600460008a73ffffffffffffffffffffffffffffffffffffffff1673ffffffffffffffffffffffffffffffffffffffff168152602001908152602001600020600101600460008b73ffffffffffffffffffffffffffffffffffffffff1673ffffffffffffffffffffffffffffffffffffffff16815260200190815260200160002060020154600460008c73ffffffffffffffffffffffffffffffffffffffff1673ffffffffffffffffffffffffffffffffffffffff168152602001908152602001600020600301600460008d73ffffffffffffffffffffffffffffffffffffffff1673ffffffffffffffffffffffffffffffffffffffff16815260200190815260200160002060040154600460008e73ffffffffffffffffffffffffffffffffffffffff1673ffffffffffffffffffffffffffffffffffffffff168152602001908152602001600020600501600460008f73ffffffffffffffffffffffffffffffffffffffff1673ffffffffffffffffffffffffffffffffffffffff16815260200190815260200160002060060160009054906101000a900460ff16858054600181600116156101000203166002900480601f01602080910402602001604051908101604052809291908181526020018280546001816001161561010002031660029004801561202c5780601f106120015761010080835404028352916020019161202c565b820191906000526020600020905b81548152906001019060200180831161200f57829003601f168201915b50505050509550838054600181600116156101000203166002900480601f0160208091040260200160405190810160405280929190818152602001828054600181600116156101000203166002900480156120c85780601f1061209d576101008083540402835291602001916120c8565b820191906000526020600020905b8154815290600101906020018083116120ab57829003601f168201915b50505050509350818054600181600116156101000203166002900480601f0160208091040260200160405190810160405280929190818152602001828054600181600116156101000203166002900480156121645780601f1061213957610100808354040283529160200191612164565b820191906000526020600020905b81548152906001019060200180831161214757829003601f168201915b50505050509150965096509650965096509650965061217f565b5b919395979092949650565b60038081111561219657fe5b6005600083815260200190815260200160002060070160149054906101000a900460ff1660038111156121c557fe5b146121cf57600080fd5b670de0b6b3a764000060056000838152602001908152602001600020600301540234146121fb57600080fd5b6005600082815260200190815260200160002060000160009054906101000a900473ffffffffffffffffffffffffffffffffffffffff1673ffffffffffffffffffffffffffffffffffffffff166108fc670de0b6b3a76400006005600085815260200190815260200160002060030154029081150290604051600060405180830381858888f19350505050158015612297573d6000803e3d6000fd5b506122d86005600083815260200190815260200160002060000160009054906101000a900473ffffffffffffffffffffffffffffffffffffffff1682612e94565b336005600083815260200190815260200160002060000160006101000a81548173ffffffffffffffffffffffffffffffffffffffff021916908373ffffffffffffffffffffffffffffffffffffffff1602179055506040518060400160405280600c81526020017f4e6f7420417070726f766564000000000000000000000000000000000000000081525060056000838152602001908152602001600020600501908051906020019061238c92919061311b565b506040518060400160405280601d81526020017f4e6f742079657420617070726f7665642062792074686520676f76742e0000008152506005600083815260200190815260200160002060060190805190602001906123ec92919061311b565b5060006005600083815260200190815260200160002060070160006101000a81548173ffffffffffffffffffffffffffffffffffffffff021916908373ffffffffffffffffffffffffffffffffffffffff16021790555060006005600083815260200190815260200160002060070160146101000a81548160ff0219169083600381111561247657fe5b0217905550600360003373ffffffffffffffffffffffffffffffffffffffff1673ffffffffffffffffffffffffffffffffffffffff16815260200190815260200160002060000181908060018154018082558091505090600182039060005260206000200160009091929091909150555050565b60056020528060005260406000206000915090508060000160009054906101000a900473ffffffffffffffffffffffffffffffffffffffff1690806001018054600181600116156101000203166002900480601f0160208091040260200160405190810160405280929190818152602001828054600181600116156101000203166002900480156125bc5780601f10612591576101008083540402835291602001916125bc565b820191906000526020600020905b81548152906001019060200180831161259f57829003601f168201915b505050505090806002018054600181600116156101000203166002900480601f01602080910402602001604051908101604052809291908181526020018280546001816001161561010002031660029004801561265a5780601f1061262f5761010080835404028352916020019161265a565b820191906000526020600020905b81548152906001019060200180831161263d57829003601f168201915b505050505090806003015490806004015490806005018054600181600116156101000203166002900480601f0160208091040260200160405190810160405280929190818152602001828054600181600116156101000203166002900480156127045780601f106126d957610100808354040283529160200191612704565b820191906000526020600020905b8154815290600101906020018083116126e757829003601f168201915b505050505090806006018054600181600116156101000203166002900480601f0160208091040260200160405190810160405280929190818152602001828054600181600116156101000203166002900480156127a25780601f10612777576101008083540402835291602001916127a2565b820191906000526020600020905b81548152906001019060200180831161278557829003601f168201915b5050505050908060070160009054906101000a900473ffffffffffffffffffffffffffffffffffffffff16908060070160149054906101000a900460ff16905089565b600080600090505b600360008473ffffffffffffffffffffffffffffffffffffffff1673ffffffffffffffffffffffffffffffffffffffff168152602001908152602001600020600001805490508110156128af5783600360008573ffffffffffffffffffffffffffffffffffffffff1673ffffffffffffffffffffffffffffffffffffffff168152602001908152602001600020600001828154811061288857fe5b906000526020600020015414156128a257809150506128b4565b80806001019150506127ed565b809150505b92915050565b60046020528060005260406000206000915090508060000160009054906101000a900473ffffffffffffffffffffffffffffffffffffffff1690806001018054600181600116156101000203166002900480601f01602080910402602001604051908101604052809291908181526020018280546001816001161561010002031660029004801561298c5780601f106129615761010080835404028352916020019161298c565b820191906000526020600020905b81548152906001019060200180831161296f57829003601f168201915b505050505090806002015490806003018054600181600116156101000203166002900480601f016020809104026020016040519081016040528092919081815260200182805460018160011615610100020316600290048015612a305780601f10612a0557610100808354040283529160200191612a30565b820191906000526020600020905b815481529060010190602001808311612a1357829003601f168201915b505050505090806004015490806005018054600181600116156101000203166002900480601f016020809104026020016040519081016040528092919081815260200182805460018160011615610100020316600290048015612ad45780601f10612aa957610100808354040283529160200191612ad4565b820191906000526020600020905b815481529060010190602001808311612ab757829003601f168201915b5050505050908060060160009054906101000a900460ff16905087565b60606001805480602002602001604051908101604052809291908181526020018280548015612b3f57602002820191906000526020600020905b815481526020019060010190808311612b2b575b5050505050905090565b3373ffffffffffffffffffffffffffffffffffffffff166005600083815260200190815260200160002060000160009054906101000a900473ffffffffffffffffffffffffffffffffffffffff1673ffffffffffffffffffffffffffffffffffffffff1614612bb757600080fd5b6040518060400160405280600981526020017f417661696c61626c650000000000000000000000000000000000000000000000815250600560008381526020019081526020016000206006019080519060200190612c1692919061311b565b5050565b600082600560008681526020019081526020016000206005019080519060200190612c4692919061311b565b5081600560008681526020019081526020016000206006019080519060200190612c7192919061311b565b50600190509392505050565b3373ffffffffffffffffffffffffffffffffffffffff166005600084815260200190815260200160002060000160009054906101000a900473ffffffffffffffffffffffffffffffffffffffff1673ffffffffffffffffffffffffffffffffffffffff1614612ceb57600080fd5b806005600084815260200190815260200160002060070160146101000a81548160ff02191690836003811115612d1d57fe5b02179055506040518060400160405280600881526020017f417070726f766564000000000000000000000000000000000000000000000000815250600560008481526020019081526020016000206006019080519060200190612d8192919061311b565b5060026003811115612d8f57fe5b816003811115612d9b57fe5b1415612e905760006005600084815260200190815260200160002060070160006101000a81548173ffffffffffffffffffffffffffffffffffffffff021916908373ffffffffffffffffffffffffffffffffffffffff16021790555060006005600084815260200190815260200160002060070160146101000a81548160ff02191690836003811115612e2a57fe5b02179055506040518060400160405280600981526020017f417661696c61626c650000000000000000000000000000000000000000000000815250600560008481526020019081526020016000206006019080519060200190612e8e92919061311b565b505b5050565b6000612ea082846127e5565b9050600360008473ffffffffffffffffffffffffffffffffffffffff1673ffffffffffffffffffffffffffffffffffffffff1681526020019081526020016000206000016001600360008673ffffffffffffffffffffffffffffffffffffffff1673ffffffffffffffffffffffffffffffffffffffff168152602001908152602001600020600001805490500381548110612f3757fe5b9060005260206000200154600360008573ffffffffffffffffffffffffffffffffffffffff1673ffffffffffffffffffffffffffffffffffffffff1681526020019081526020016000206000018281548110612f8f57fe5b9060005260206000200181905550600360008473ffffffffffffffffffffffffffffffffffffffff1673ffffffffffffffffffffffffffffffffffffffff1681526020019081526020016000206000016001600360008673ffffffffffffffffffffffffffffffffffffffff1673ffffffffffffffffffffffffffffffffffffffff16815260200190815260200160002060000180549050038154811061303257fe5b9060005260206000200160009055600360008473ffffffffffffffffffffffffffffffffffffffff1673ffffffffffffffffffffffffffffffffffffffff168152602001908152602001600020600001805480919060019003613095919061319b565b50505050565b828054600181600116156101000203166002900490600052602060002090601f016020900481019282601f106130dc57805160ff191683800117855561310a565b8280016001018555821561310a579182015b828111156131095782518255916020019190600101906130ee565b5b50905061311791906131c7565b5090565b828054600181600116156101000203166002900490600052602060002090601f016020900481019282601f1061315c57805160ff191683800117855561318a565b8280016001018555821561318a579182015b8281111561318957825182559160200191906001019061316e565b5b50905061319791906131c7565b5090565b8154818355818111156131c2578183600052602060002091820191016131c191906131c7565b5b505050565b6131e991905b808211156131e55760008160009055506001016131cd565b5090565b9056fea265627a7a72315820914ee85ad5e909050ed94921872f3e31715e6287191a41e14670aa67a11254ce64736f6c63430005100032",
  "source": "pragma solidity ^0.5.0;\r\n\r\ncontract LandRegistry {\r\n    struct Task {\r\n        uint256 id;\r\n        string content;\r\n        bool completed;\r\n    }\r\n    struct user {\r\n        address userid;\r\n        string uname;\r\n        uint256 ucontact;\r\n        string uemail;\r\n        uint256 upostalCode;\r\n        string city;\r\n        bool exist;\r\n    }\r\n    struct landDetails {\r\n        address payable id;\r\n        string ipfsHash;\r\n        string laddress;\r\n        uint256 lamount;\r\n        uint256 key;\r\n        string isGovtApproved;\r\n        string isAvailable;\r\n        address requester;\r\n        reqStatus requestStatus;\r\n    }\r\n\r\n    address[] userarr;\r\n    uint256[] assets;\r\n    address owner;\r\n    enum reqStatus {Default, Pending, Rejected, Approved}\r\n\r\n    constructor() public {\r\n        owner = msg.sender;\r\n    }\r\n\r\n    struct profiles {\r\n        uint256[] assetList;\r\n    }\r\n\r\n    mapping(address => profiles) profile;\r\n\r\n    mapping(address => user) public users;\r\n    mapping(uint256 => landDetails) public land;\r\n\r\n    function addUser(\r\n        address uid,\r\n        string memory _uname,\r\n        uint256 _ucontact,\r\n        string memory _uemail,\r\n        uint256 _ucode,\r\n        string memory _ucity\r\n    ) public returns (bool) {\r\n        users[uid] = user(\r\n            uid,\r\n            _uname,\r\n            _ucontact,\r\n            _uemail,\r\n            _ucode,\r\n            _ucity,\r\n            true\r\n        );\r\n        userarr.push(uid);\r\n        return true;\r\n    }\r\n\r\n    function getUser(address uid)\r\n        public\r\n        view\r\n        returns (\r\n            address,\r\n            string memory,\r\n            uint256,\r\n            string memory,\r\n            uint256,\r\n            string memory,\r\n            bool\r\n        )\r\n    {\r\n        if (users[uid].exist)\r\n            return (\r\n                users[uid].userid,\r\n                users[uid].uname,\r\n                users[uid].ucontact,\r\n                users[uid].uemail,\r\n                users[uid].upostalCode,\r\n                users[uid].city,\r\n                users[uid].exist\r\n            );\r\n    }\r\n\r\n    function Registration(\r\n        address payable _id,\r\n        string memory _ipfsHash,\r\n        string memory _laddress,\r\n        uint256 _lamount,\r\n        uint256 _key,\r\n        string memory status,\r\n        string memory _isAvailable\r\n    ) public returns (bool) {\r\n        land[_key] = landDetails(\r\n            _id,\r\n            _ipfsHash,\r\n            _laddress,\r\n            _lamount,\r\n            _key,\r\n            status,\r\n            _isAvailable,\r\n            0x0000000000000000000000000000000000000000,\r\n            reqStatus.Default\r\n        );\r\n        profile[_id].assetList.push(_key);\r\n        assets.push(_key);\r\n        return true;\r\n    }\r\n\r\n    function computeId(string memory _laddress, string memory _lamount)\r\n        public\r\n        view\r\n        returns (uint256)\r\n    {\r\n        return\r\n            uint256(keccak256(abi.encodePacked(_laddress, _lamount))) %\r\n            10000000000000;\r\n    }\r\n\r\n    function viewAssets() public view returns (uint256[] memory) {\r\n        return (profile[msg.sender].assetList);\r\n    }\r\n\r\n    function Assets() public view returns (uint256[] memory) {\r\n        return assets;\r\n    }\r\n\r\n    function landInfoOwner(uint256 id)\r\n        public\r\n        view\r\n        returns (\r\n            address payable,\r\n            string memory,\r\n            uint256,\r\n            string memory,\r\n            string memory,\r\n            address,\r\n            reqStatus\r\n        )\r\n    {\r\n        return (\r\n            land[id].id,\r\n            land[id].ipfsHash,\r\n            land[id].lamount,\r\n            land[id].isGovtApproved,\r\n            land[id].isAvailable,\r\n            land[id].requester,\r\n            land[id].requestStatus\r\n        );\r\n    }\r\n\r\n    function govtStatus(\r\n        uint256 _id,\r\n        string memory status,\r\n        string memory _isAvailable\r\n    ) public returns (bool) {\r\n        land[_id].isGovtApproved = status;\r\n        land[_id].isAvailable = _isAvailable;\r\n        return true;\r\n    }\r\n\r\n    function makeAvailable(uint256 property) public {\r\n        require(land[property].id == msg.sender);\r\n        land[property].isAvailable = \"Available\";\r\n    }\r\n\r\n    function requstToLandOwner(uint256 id) public {\r\n        land[id].requester = msg.sender;\r\n        land[id].isAvailable = \"Pending\";\r\n        land[id].requestStatus = reqStatus.Pending;\r\n    }\r\n\r\n    function processRequest(uint256 property, reqStatus status) public {\r\n        require(land[property].id == msg.sender);\r\n        land[property].requestStatus = status;\r\n        land[property].isAvailable = \"Approved\";\r\n        if (status == reqStatus.Rejected) {\r\n            land[property].requester = address(0);\r\n            land[property].requestStatus = reqStatus.Default;\r\n            land[property].isAvailable = \"Available\";\r\n        }\r\n    }\r\n\r\n    function buyProperty(uint256 property) public payable {\r\n        require(land[property].requestStatus == reqStatus.Approved);\r\n        require(msg.value == (land[property].lamount * 1000000000000000000));\r\n        land[property].id.transfer(\r\n            land[property].lamount * 1000000000000000000\r\n        );\r\n        removeOwnership(land[property].id, property);\r\n        land[property].id = msg.sender;\r\n        land[property].isGovtApproved = \"Not Approved\";\r\n        land[property].isAvailable = \"Not yet approved by the govt.\";\r\n        land[property].requester = address(0);\r\n        land[property].requestStatus = reqStatus.Default;\r\n        profile[msg.sender].assetList.push(property);\r\n    }\r\n\r\n    function removeOwnership(address previousOwner, uint256 id) private {\r\n        uint256 index = findId(id, previousOwner);\r\n        profile[previousOwner].assetList[index] = profile[previousOwner]\r\n            .assetList[profile[previousOwner].assetList.length - 1];\r\n        delete profile[previousOwner].assetList[profile[previousOwner]\r\n            .assetList\r\n            .length - 1];\r\n        profile[previousOwner].assetList.length--;\r\n    }\r\n\r\n    function findId(uint256 id, address user) public view returns (uint256) {\r\n        uint256 i;\r\n        for (i = 0; i < profile[user].assetList.length; i++) {\r\n            if (profile[user].assetList[i] == id) return i;\r\n        }\r\n        return i;\r\n    }\r\n}\r\n",
  "sourcePath": "D:\\code\\Hacks\\KSIT Hack\\Final\\Land-Registry-Application\\src\\contracts\\LandRegistry.sol",
  "compiler": {
    "name": "solc",
    "version": "0.5.16+commit.9c3226ce.Emscripten.clang"
  },
  "schemaVersion": "3.4.7",
  "updatedAt": "2022-06-21T06:00:46.907Z",
  "networkType": "ethereum",
  "devdoc": {
    "methods": {}
  },
  "userdoc": {
    "methods": {}
  }
}